{
  "contractName": "InkaAaveProvider",
  "abi": [
    {
      "inputs": [
        {
          "internalType": "address",
          "name": "_weth",
          "type": "address"
        },
        {
          "internalType": "address",
          "name": "_iLendingPool",
          "type": "address"
        },
        {
          "internalType": "address",
          "name": "_iWETHGateway",
          "type": "address"
        }
      ],
      "stateMutability": "nonpayable",
      "type": "constructor"
    },
    {
      "anonymous": false,
      "inputs": [
        {
          "indexed": false,
          "internalType": "address",
          "name": "onBehalfOf",
          "type": "address"
        },
        {
          "indexed": false,
          "internalType": "address",
          "name": "asset",
          "type": "address"
        },
        {
          "indexed": false,
          "internalType": "uint256",
          "name": "amount",
          "type": "uint256"
        }
      ],
      "name": "InkaAaveDepositOperation",
      "type": "event"
    },
    {
      "anonymous": false,
      "inputs": [
        {
          "indexed": true,
          "internalType": "address",
          "name": "previousOwner",
          "type": "address"
        },
        {
          "indexed": true,
          "internalType": "address",
          "name": "newOwner",
          "type": "address"
        }
      ],
      "name": "OwnershipTransferred",
      "type": "event"
    },
    {
      "inputs": [],
      "name": "FEE_DENOMINATOR",
      "outputs": [
        {
          "internalType": "uint256",
          "name": "",
          "type": "uint256"
        }
      ],
      "stateMutability": "view",
      "type": "function",
      "constant": true
    },
    {
      "inputs": [],
      "name": "WETH",
      "outputs": [
        {
          "internalType": "address",
          "name": "",
          "type": "address"
        }
      ],
      "stateMutability": "view",
      "type": "function",
      "constant": true
    },
    {
      "inputs": [],
      "name": "iLendingPool",
      "outputs": [
        {
          "internalType": "address",
          "name": "",
          "type": "address"
        }
      ],
      "stateMutability": "view",
      "type": "function",
      "constant": true
    },
    {
      "inputs": [],
      "name": "iWETHGateway",
      "outputs": [
        {
          "internalType": "address",
          "name": "",
          "type": "address"
        }
      ],
      "stateMutability": "view",
      "type": "function",
      "constant": true
    },
    {
      "inputs": [],
      "name": "owner",
      "outputs": [
        {
          "internalType": "address",
          "name": "",
          "type": "address"
        }
      ],
      "stateMutability": "view",
      "type": "function",
      "constant": true
    },
    {
      "inputs": [],
      "name": "providerFee",
      "outputs": [
        {
          "internalType": "uint256",
          "name": "",
          "type": "uint256"
        }
      ],
      "stateMutability": "view",
      "type": "function",
      "constant": true
    },
    {
      "inputs": [],
      "name": "renounceOwnership",
      "outputs": [],
      "stateMutability": "nonpayable",
      "type": "function"
    },
    {
      "inputs": [
        {
          "internalType": "address",
          "name": "newOwner",
          "type": "address"
        }
      ],
      "name": "transferOwnership",
      "outputs": [],
      "stateMutability": "nonpayable",
      "type": "function"
    },
    {
      "stateMutability": "payable",
      "type": "receive",
      "payable": true
    },
    {
      "inputs": [
        {
          "internalType": "address",
          "name": "_onBehalfOf",
          "type": "address"
        },
        {
          "internalType": "uint16",
          "name": "_referralCode",
          "type": "uint16"
        }
      ],
      "name": "depositETH",
      "outputs": [
        {
          "internalType": "bool",
          "name": "",
          "type": "bool"
        }
      ],
      "stateMutability": "payable",
      "type": "function",
      "payable": true
    },
    {
      "inputs": [
        {
          "internalType": "address",
          "name": "_asset",
          "type": "address"
        },
        {
          "internalType": "uint256",
          "name": "_amount",
          "type": "uint256"
        },
        {
          "internalType": "address",
          "name": "_onBehalfOf",
          "type": "address"
        },
        {
          "internalType": "uint16",
          "name": "_referralCode",
          "type": "uint16"
        }
      ],
      "name": "deposit",
      "outputs": [
        {
          "internalType": "uint256",
          "name": "",
          "type": "uint256"
        }
      ],
      "stateMutability": "nonpayable",
      "type": "function"
    },
    {
      "inputs": [
        {
          "internalType": "address",
          "name": "token",
          "type": "address"
        }
      ],
      "name": "withdraw",
      "outputs": [],
      "stateMutability": "nonpayable",
      "type": "function"
    },
    {
      "inputs": [
        {
          "internalType": "uint256",
          "name": "_fee",
          "type": "uint256"
        }
      ],
      "name": "setFee",
      "outputs": [],
      "stateMutability": "nonpayable",
      "type": "function"
    },
    {
      "inputs": [
        {
          "internalType": "address",
          "name": "_weth",
          "type": "address"
        }
      ],
      "name": "setWETH",
      "outputs": [],
      "stateMutability": "nonpayable",
      "type": "function"
    }
  ],
  "bytecode": "0x60806040526305f5e1006004553480156200001957600080fd5b506040516200211938038062002119833981810160405260608110156200003f57600080fd5b810190808051906020019092919080519060200190929190805190602001909291905050506000620000766200037860201b60201c565b9050806000806101000a81548173ffffffffffffffffffffffffffffffffffffffff021916908373ffffffffffffffffffffffffffffffffffffffff1602179055508073ffffffffffffffffffffffffffffffffffffffff16600073ffffffffffffffffffffffffffffffffffffffff167f8be0079c531659141344cd1fd0a4f28419497f9722a3daafe3b4186f6b6457e060405160405180910390a350600073ffffffffffffffffffffffffffffffffffffffff168373ffffffffffffffffffffffffffffffffffffffff1614156200019c576040517f08c379a0000000000000000000000000000000000000000000000000000000008152600401808060200182810382526023815260200180620020f66023913960400191505060405180910390fd5b600073ffffffffffffffffffffffffffffffffffffffff168273ffffffffffffffffffffffffffffffffffffffff16141562000224576040517f08c379a000000000000000000000000000000000000000000000000000000000815260040180806020018281038252602b815260200180620020a0602b913960400191505060405180910390fd5b600073ffffffffffffffffffffffffffffffffffffffff168173ffffffffffffffffffffffffffffffffffffffff161415620002ac576040517f08c379a000000000000000000000000000000000000000000000000000000000815260040180806020018281038252602b815260200180620020cb602b913960400191505060405180910390fd5b82600160006101000a81548173ffffffffffffffffffffffffffffffffffffffff021916908373ffffffffffffffffffffffffffffffffffffffff16021790555081600260006101000a81548173ffffffffffffffffffffffffffffffffffffffff021916908373ffffffffffffffffffffffffffffffffffffffff16021790555080600360006101000a81548173ffffffffffffffffffffffffffffffffffffffff021916908373ffffffffffffffffffffffffffffffffffffffff16021790555050505062000380565b600033905090565b611d1080620003906000396000f3fe6080604052600436106100c65760003560e01c80638da5cb5b1161007f578063cd74833f11610059578063cd74833f1461031c578063d73792a91461035d578063e8eda9df14610388578063f2fde38b14610425576100cd565b80638da5cb5b1461026f578063ad5c4648146102b0578063c6e983d9146102f1576100cd565b8063156a75d3146100d257806351cff8d91461011357806358c22be7146101645780635b769f3c146101cc57806369fe0e2d1461021d578063715018a614610258576100cd565b366100cd57005b600080fd5b3480156100de57600080fd5b506100e7610476565b604051808273ffffffffffffffffffffffffffffffffffffffff16815260200191505060405180910390f35b34801561011f57600080fd5b506101626004803603602081101561013657600080fd5b81019080803573ffffffffffffffffffffffffffffffffffffffff16906020019092919050505061049c565b005b6101b46004803603604081101561017a57600080fd5b81019080803573ffffffffffffffffffffffffffffffffffffffff169060200190929190803561ffff1690602001909291905050506107c5565b60405180821515815260200191505060405180910390f35b3480156101d857600080fd5b5061021b600480360360208110156101ef57600080fd5b81019080803573ffffffffffffffffffffffffffffffffffffffff169060200190929190505050610903565b005b34801561022957600080fd5b506102566004803603602081101561024057600080fd5b8101908080359060200190929190505050610a0f565b005b34801561026457600080fd5b5061026d610ae1565b005b34801561027b57600080fd5b50610284610c67565b604051808273ffffffffffffffffffffffffffffffffffffffff16815260200191505060405180910390f35b3480156102bc57600080fd5b506102c5610c90565b604051808273ffffffffffffffffffffffffffffffffffffffff16815260200191505060405180910390f35b3480156102fd57600080fd5b50610306610cb6565b6040518082815260200191505060405180910390f35b34801561032857600080fd5b50610331610cbc565b604051808273ffffffffffffffffffffffffffffffffffffffff16815260200191505060405180910390f35b34801561036957600080fd5b50610372610ce2565b6040518082815260200191505060405180910390f35b34801561039457600080fd5b5061040f600480360360808110156103ab57600080fd5b81019080803573ffffffffffffffffffffffffffffffffffffffff16906020019092919080359060200190929190803573ffffffffffffffffffffffffffffffffffffffff169060200190929190803561ffff169060200190929190505050610ceb565b6040518082815260200191505060405180910390f35b34801561043157600080fd5b506104746004803603602081101561044857600080fd5b81019080803573ffffffffffffffffffffffffffffffffffffffff16906020019092919050505061136c565b005b600260009054906101000a900473ffffffffffffffffffffffffffffffffffffffff1681565b6104a4611577565b73ffffffffffffffffffffffffffffffffffffffff1660008054906101000a900473ffffffffffffffffffffffffffffffffffffffff1673ffffffffffffffffffffffffffffffffffffffff1614610564576040517f08c379a00000000000000000000000000000000000000000000000000000000081526004018080602001828103825260208152602001807f4f776e61626c653a2063616c6c6572206973206e6f7420746865206f776e657281525060200191505060405180910390fd5b600160009054906101000a900473ffffffffffffffffffffffffffffffffffffffff1673ffffffffffffffffffffffffffffffffffffffff168173ffffffffffffffffffffffffffffffffffffffff16141561070e5760008173ffffffffffffffffffffffffffffffffffffffff166370a08231306040518263ffffffff1660e01b8152600401808273ffffffffffffffffffffffffffffffffffffffff16815260200191505060206040518083038186803b15801561062357600080fd5b505afa158015610637573d6000803e3d6000fd5b505050506040513d602081101561064d57600080fd5b8101908080519060200190929190505050905060008111156106f757600160009054906101000a900473ffffffffffffffffffffffffffffffffffffffff1673ffffffffffffffffffffffffffffffffffffffff16632e1a7d4d826040518263ffffffff1660e01b815260040180828152602001915050600060405180830381600087803b1580156106de57600080fd5b505af11580156106f2573d6000803e3d6000fd5b505050505b610708610702610c67565b4761157f565b506107c2565b6107c18161071a610c67565b8373ffffffffffffffffffffffffffffffffffffffff166370a08231306040518263ffffffff1660e01b8152600401808273ffffffffffffffffffffffffffffffffffffffff16815260200191505060206040518083038186803b15801561078157600080fd5b505afa158015610795573d6000803e3d6000fd5b505050506040513d60208110156107ab57600080fd5b81019080805190602001909291905050506116de565b5b50565b6000806107f46402540be4006107e6600454346118c190919063ffffffff16565b61195690919063ffffffff16565b9050600360009054906101000a900473ffffffffffffffffffffffffffffffffffffffff1673ffffffffffffffffffffffffffffffffffffffff1663474cf53d610847833461196a90919063ffffffff16565b600260009054906101000a900473ffffffffffffffffffffffffffffffffffffffff1687876040518563ffffffff1660e01b8152600401808473ffffffffffffffffffffffffffffffffffffffff1681526020018373ffffffffffffffffffffffffffffffffffffffff1681526020018261ffff16815260200193505050506000604051808303818588803b1580156108df57600080fd5b505af11580156108f3573d6000803e3d6000fd5b5050505050600191505092915050565b61090b611577565b73ffffffffffffffffffffffffffffffffffffffff1660008054906101000a900473ffffffffffffffffffffffffffffffffffffffff1673ffffffffffffffffffffffffffffffffffffffff16146109cb576040517f08c379a00000000000000000000000000000000000000000000000000000000081526004018080602001828103825260208152602001807f4f776e61626c653a2063616c6c6572206973206e6f7420746865206f776e657281525060200191505060405180910390fd5b80600160006101000a81548173ffffffffffffffffffffffffffffffffffffffff021916908373ffffffffffffffffffffffffffffffffffffffff16021790555050565b610a17611577565b73ffffffffffffffffffffffffffffffffffffffff1660008054906101000a900473ffffffffffffffffffffffffffffffffffffffff1673ffffffffffffffffffffffffffffffffffffffff1614610ad7576040517f08c379a00000000000000000000000000000000000000000000000000000000081526004018080602001828103825260208152602001807f4f776e61626c653a2063616c6c6572206973206e6f7420746865206f776e657281525060200191505060405180910390fd5b8060048190555050565b610ae9611577565b73ffffffffffffffffffffffffffffffffffffffff1660008054906101000a900473ffffffffffffffffffffffffffffffffffffffff1673ffffffffffffffffffffffffffffffffffffffff1614610ba9576040517f08c379a00000000000000000000000000000000000000000000000000000000081526004018080602001828103825260208152602001807f4f776e61626c653a2063616c6c6572206973206e6f7420746865206f776e657281525060200191505060405180910390fd5b600073ffffffffffffffffffffffffffffffffffffffff1660008054906101000a900473ffffffffffffffffffffffffffffffffffffffff1673ffffffffffffffffffffffffffffffffffffffff167f8be0079c531659141344cd1fd0a4f28419497f9722a3daafe3b4186f6b6457e060405160405180910390a360008060006101000a81548173ffffffffffffffffffffffffffffffffffffffff021916908373ffffffffffffffffffffffffffffffffffffffff160217905550565b60008060009054906101000a900473ffffffffffffffffffffffffffffffffffffffff16905090565b600160009054906101000a900473ffffffffffffffffffffffffffffffffffffffff1681565b60045481565b600360009054906101000a900473ffffffffffffffffffffffffffffffffffffffff1681565b6402540be40081565b60008073ffffffffffffffffffffffffffffffffffffffff168573ffffffffffffffffffffffffffffffffffffffff161415610d72576040517f08c379a0000000000000000000000000000000000000000000000000000000008152600401808060200182810382526027815260200180611c906027913960400191505060405180910390fd5b600073ffffffffffffffffffffffffffffffffffffffff168373ffffffffffffffffffffffffffffffffffffffff161415610df8576040517f08c379a000000000000000000000000000000000000000000000000000000000815260040180806020018281038252602b815260200180611c42602b913960400191505060405180910390fd5b6000859050848173ffffffffffffffffffffffffffffffffffffffff166370a08231866040518263ffffffff1660e01b8152600401808273ffffffffffffffffffffffffffffffffffffffff16815260200191505060206040518083038186803b158015610e6557600080fd5b505afa158015610e79573d6000803e3d6000fd5b505050506040513d6020811015610e8f57600080fd5b81019080805190602001909291905050501015610ef7576040517f08c379a0000000000000000000000000000000000000000000000000000000008152600401808060200182810382526026815260200180611c1c6026913960400191505060405180910390fd5b848173ffffffffffffffffffffffffffffffffffffffff1663dd62ed3e86306040518363ffffffff1660e01b8152600401808373ffffffffffffffffffffffffffffffffffffffff1681526020018273ffffffffffffffffffffffffffffffffffffffff1681526020019250505060206040518083038186803b158015610f7d57600080fd5b505afa158015610f91573d6000803e3d6000fd5b505050506040513d6020811015610fa757600080fd5b8101908080519060200190929190505050101561100f576040517f08c379a0000000000000000000000000000000000000000000000000000000008152600401808060200182810382526023815260200180611bd36023913960400191505060405180910390fd5b61101b868530886119ed565b60006110496402540be40061103b600454896118c190919063ffffffff16565b61195690919063ffffffff16565b9050858273ffffffffffffffffffffffffffffffffffffffff1663dd62ed3e30600260009054906101000a900473ffffffffffffffffffffffffffffffffffffffff166040518363ffffffff1660e01b8152600401808373ffffffffffffffffffffffffffffffffffffffff1681526020018273ffffffffffffffffffffffffffffffffffffffff1681526020019250505060206040518083038186803b1580156110f357600080fd5b505afa158015611107573d6000803e3d6000fd5b505050506040513d602081101561111d57600080fd5b81019080805190602001909291905050501015611204578173ffffffffffffffffffffffffffffffffffffffff1663095ea7b3600260009054906101000a900473ffffffffffffffffffffffffffffffffffffffff16886040518363ffffffff1660e01b8152600401808373ffffffffffffffffffffffffffffffffffffffff16815260200182815260200192505050602060405180830381600087803b1580156111c757600080fd5b505af11580156111db573d6000803e3d6000fd5b505050506040513d60208110156111f157600080fd5b8101908080519060200190929190505050505b600260009054906101000a900473ffffffffffffffffffffffffffffffffffffffff1673ffffffffffffffffffffffffffffffffffffffff1663e8eda9df88611256848a61196a90919063ffffffff16565b88886040518563ffffffff1660e01b8152600401808573ffffffffffffffffffffffffffffffffffffffff1681526020018481526020018373ffffffffffffffffffffffffffffffffffffffff1681526020018261ffff168152602001945050505050600060405180830381600087803b1580156112d357600080fd5b505af11580156112e7573d6000803e3d6000fd5b505050507fb45eb0f2aaa628656cdce0c8b8217617d9ce6fd87d0f404d844ed0a297e5b676858888604051808473ffffffffffffffffffffffffffffffffffffffff1681526020018373ffffffffffffffffffffffffffffffffffffffff168152602001828152602001935050505060405180910390a1600192505050949350505050565b611374611577565b73ffffffffffffffffffffffffffffffffffffffff1660008054906101000a900473ffffffffffffffffffffffffffffffffffffffff1673ffffffffffffffffffffffffffffffffffffffff1614611434576040517f08c379a00000000000000000000000000000000000000000000000000000000081526004018080602001828103825260208152602001807f4f776e61626c653a2063616c6c6572206973206e6f7420746865206f776e657281525060200191505060405180910390fd5b600073ffffffffffffffffffffffffffffffffffffffff168173ffffffffffffffffffffffffffffffffffffffff1614156114ba576040517f08c379a0000000000000000000000000000000000000000000000000000000008152600401808060200182810382526026815260200180611bf66026913960400191505060405180910390fd5b8073ffffffffffffffffffffffffffffffffffffffff1660008054906101000a900473ffffffffffffffffffffffffffffffffffffffff1673ffffffffffffffffffffffffffffffffffffffff167f8be0079c531659141344cd1fd0a4f28419497f9722a3daafe3b4186f6b6457e060405160405180910390a3806000806101000a81548173ffffffffffffffffffffffffffffffffffffffff021916908373ffffffffffffffffffffffffffffffffffffffff16021790555050565b600033905090565b60008273ffffffffffffffffffffffffffffffffffffffff1682600067ffffffffffffffff811180156115b157600080fd5b506040519080825280601f01601f1916602001820160405280156115e45781602001600182028036833780820191505090505b506040518082805190602001908083835b6020831061161857805182526020820191506020810190506020830392506115f5565b6001836020036101000a03801982511681845116808217855250505050505090500191505060006040518083038185875af1925050503d806000811461167a576040519150601f19603f3d011682016040523d82523d6000602084013e61167f565b606091505b50509050806116d9576040517f08c379a0000000000000000000000000000000000000000000000000000000008152600401808060200182810382526023815260200180611c6d6023913960400191505060405180910390fd5b505050565b600060608473ffffffffffffffffffffffffffffffffffffffff1663a9059cbb8585604051602401808373ffffffffffffffffffffffffffffffffffffffff168152602001828152602001925050506040516020818303038152906040529060e01b6020820180517bffffffffffffffffffffffffffffffffffffffffffffffffffffffff83818316178352505050506040518082805190602001908083835b602083106117a1578051825260208201915060208101905060208303925061177e565b6001836020036101000a0380198251168184511680821785525050505050509050019150506000604051808303816000865af19150503d8060008114611803576040519150601f19603f3d011682016040523d82523d6000602084013e611808565b606091505b50915091508180156118485750600081511480611847575080806020019051602081101561183557600080fd5b81019080805190602001909291905050505b5b6118ba576040517f08c379a000000000000000000000000000000000000000000000000000000000815260040180806020018281038252601f8152602001807f5472616e7366657248656c7065723a205452414e534645525f4641494c45440081525060200191505060405180910390fd5b5050505050565b6000808214806118de57508282838502925082816118db57fe5b04145b611950576040517f08c379a00000000000000000000000000000000000000000000000000000000081526004018080602001828103825260148152602001807f64732d6d6174682d6d756c2d6f766572666c6f7700000000000000000000000081525060200191505060405180910390fd5b92915050565b600081838161196157fe5b04905092915050565b60008282840391508111156119e7576040517f08c379a00000000000000000000000000000000000000000000000000000000081526004018080602001828103825260158152602001807f64732d6d6174682d7375622d756e646572666c6f77000000000000000000000081525060200191505060405180910390fd5b92915050565b600060608573ffffffffffffffffffffffffffffffffffffffff166323b872dd868686604051602401808473ffffffffffffffffffffffffffffffffffffffff1681526020018373ffffffffffffffffffffffffffffffffffffffff16815260200182815260200193505050506040516020818303038152906040529060e01b6020820180517bffffffffffffffffffffffffffffffffffffffffffffffffffffffff83818316178352505050506040518082805190602001908083835b60208310611ace5780518252602082019150602081019050602083039250611aab565b6001836020036101000a0380198251168184511680821785525050505050509050019150506000604051808303816000865af19150503d8060008114611b30576040519150601f19603f3d011682016040523d82523d6000602084013e611b35565b606091505b5091509150818015611b755750600081511480611b745750808060200190516020811015611b6257600080fd5b81019080805190602001909291905050505b5b611bca576040517f08c379a0000000000000000000000000000000000000000000000000000000008152600401808060200182810382526024815260200180611cb76024913960400191505060405180910390fd5b50505050505056fe496e6b614161766550726f76696465723a20494e56414c49445f414c4c4f57414e43454f776e61626c653a206e6577206f776e657220697320746865207a65726f2061646472657373496e6b614161766550726f76696465723a2042414c414e43455f494e53554646494349454e54496e6b614161766550726f76696465723a20494e56414c49445f424548414c465f4f465f414444524553535472616e7366657248656c7065723a204554485f5452414e534645525f4641494c4544496e6b614161766550726f76696465723a20494e56414c49445f41535345545f414444524553535472616e7366657248656c7065723a205452414e534645525f46524f4d5f4641494c4544a264697066735822122035d035307ff37c3ad58537406236f18d61b84b0e01bb1e03498bb112553571e464736f6c634300060c0033496e6b614161766550726f76696465723a205a45524f5f4c454e44494e475f504f4f4c5f41444452455353496e6b614161766550726f76696465723a205a45524f5f574554485f474154455741595f41444452455353496e6b614161766550726f76696465723a205a45524f5f574554485f41444452455353",
  "immutableReferences": {},
  "source": "pragma solidity =0.6.12;\n\nimport \"./utils/Ownable.sol\";\nimport './libraries/TransferHelper.sol';\nimport \"./libraries/SafeMath.sol\";\n\nimport \"./eth/interfaces/IERC20.sol\";\nimport \"./eth/interfaces/ILendingPool.sol\";\nimport \"./eth/interfaces/IWETH.sol\";\nimport \"./eth/interfaces/IWETHGateway.sol\";\n\ncontract InkaAaveProvider is Ownable {\n    using SafeMath for uint256;\n\n    event InkaAaveDepositOperation(address onBehalfOf, address asset, uint256 amount);\n\n    address public WETH;\n    address public iLendingPool;\n    address public iWETHGateway;\n\n    constructor (address _weth, address _iLendingPool, address _iWETHGateway) public {\n        require(_weth != address(0), \"InkaAaveProvider: ZERO_WETH_ADDRESS\");\n        require(_iLendingPool != address(0), \"InkaAaveProvider: ZERO_LENDING_POOL_ADDRESS\");\n        require(_iWETHGateway != address(0), \"InkaAaveProvider: ZERO_WETH_GATEWAY_ADDRESS\");\n        WETH = _weth;\n        iLendingPool = _iLendingPool;\n        iWETHGateway = _iWETHGateway;\n    }\n\n    uint256 public providerFee = 10 * 10 ** 7;\n    uint256 public constant FEE_DENOMINATOR = 10 ** 10;\n\n    function depositETH(address _onBehalfOf, uint16 _referralCode) public payable returns (bool) {\n        uint feeAmount = msg.value.mul(providerFee).div(FEE_DENOMINATOR);\n        IWETHGateway(iWETHGateway).depositETH{value: msg.value.sub(feeAmount)}(iLendingPool, _onBehalfOf, _referralCode);\n        return true;\n    }\n\n    function deposit(address _asset, uint256 _amount, address _onBehalfOf, uint16 _referralCode) public returns (uint) {\n        require(_asset != address(0), \"InkaAaveProvider: INVALID_ASSET_ADDRESS\");\n        require(_onBehalfOf != address(0), \"InkaAaveProvider: INVALID_BEHALF_OF_ADDRESS\");\n        IERC20 assetToken = IERC20(_asset);\n        require(assetToken.balanceOf(_onBehalfOf) >= _amount, \"InkaAaveProvider: BALANCE_INSUFFICIENT\");\n        require(assetToken.allowance(_onBehalfOf, address(this)) >= _amount, \"InkaAaveProvider: INVALID_ALLOWANCE\");\n        TransferHelper.safeTransferFrom(_asset, _onBehalfOf, address(this), _amount);\n        uint feeAmount = _amount.mul(providerFee).div(FEE_DENOMINATOR);\n\n        if(assetToken.allowance(address(this), iLendingPool) < _amount) {\n            assetToken.approve(iLendingPool, _amount);\n        }\n        \n        ILendingPool(iLendingPool).deposit(_asset, _amount.sub(feeAmount), _onBehalfOf, _referralCode);\n        emit InkaAaveDepositOperation(_onBehalfOf, _asset, _amount);\n        return 1;\n    }\n\n\n    receive() external payable { }\n\n    function withdraw(address token) external onlyOwner {\n        if (token == WETH) {\n            uint256 wethBalance = IERC20(token).balanceOf(address(this));\n            if (wethBalance > 0) {\n                IWETH(WETH).withdraw(wethBalance);\n            }\n            TransferHelper.safeTransferETH(owner(), address(this).balance);\n        } else {\n            TransferHelper.safeTransfer(token, owner(), IERC20(token).balanceOf(address(this)));\n        }\n    }\n\n    function setFee(uint _fee) external onlyOwner {\n        providerFee = _fee;\n    }\n\n    function setWETH(address _weth) external onlyOwner {\n        WETH = _weth;\n    }\n}",
  "sourcePath": "/home/aibek/inka-wallet/inka-aave-provider/contracts/InkaAaveProvider.sol",
  "compiler": {
    "name": "solc",
    "version": "0.6.12+commit.27d51765.Emscripten.clang"
  },
  "schemaVersion": "3.3.4",
  "updatedAt": "2021-06-30T05:14:42.233Z",
  "networkType": "ethereum",
  "devdoc": {
    "kind": "dev",
    "methods": {
      "owner()": {
        "details": "Returns the address of the current owner."
      },
      "renounceOwnership()": {
        "details": "Leaves the contract without owner. It will not be possible to call `onlyOwner` functions anymore. Can only be called by the current owner. NOTE: Renouncing ownership will leave the contract without an owner, thereby removing any functionality that is only available to the owner."
      },
      "transferOwnership(address)": {
        "details": "Transfers ownership of the contract to a new account (`newOwner`). Can only be called by the current owner."
      }
    },
    "version": 1
  },
  "userdoc": {
    "kind": "user",
    "methods": {},
    "version": 1
  }
}